:100000000C9426040C9438040C9438040C94B10F0E
:100010000C94E4310C9438040C9438040C94380497
:100020000C9438040C9438040C9438040C94AD28C7
:100030000C9438040C9438040C9438040C94380450
:100040000C94C62A0C9438040C94B5240C94772490
:100050000C9438040C9438040C9438040C94380430
:100060000C9438040C9438044507290F290F4F07C6
:100070005C0769077607290F7A07290F8807290F78
:1000800092079C07CD07290F290F290FA607B30751
:10009000C007ED0DFE0D1D0EFE0D210E340E270EB8
:1000A0002D0E490E4F0E5E0E750E990EA30EAF0E5D
:1000B000B90EA81FAB1FB01FB31FB61FB91FBC1FBF
:1000C000BF1FC21FC51FC81FD41FD41FD41FD41FDA
:1000D000D41FD41FD41FD41FCE1FCB1FD11F1B2052
:1000E0001E202120242027202A202D2030201827E0
:1000F0001E2721272427292731273B27A727A72782
:10010000A727432746274F275827A727A727A727EB
:10011000A727A727A72760276A2776277E27812773
:100120008A2793279927084AD73B3BCE016E84BC88
:10013000BFFDC12F3D6C74319ABD56833DDA3D0041
:10014000C77F11BED9E4BB4C3E916BAAAABE00008A
:1001500000803F05A84CCDB2D44EB93836A9020C68
:1001600050B9918688083CA6AAAA2ABE0000008041
:100170003F003E0D0A002C4C696D3A002C52583A53
:10018000002C4275663A002C002C57506F733A00D1
:100190002C002C4D506F733A003C446F6F72003C42
:1001A000436865636B003C416C61726D003C486F55
:1001B0006D65003C486F6C64003C52756E003C49B4
:1001C000646C65005D0D0A005B302E396A2E32309A
:1001D0003135313231383A000D0A003D00244E00ED
:1001E0005D0D0A00205300204600205400204D38A9
:1001F00000204D3900204D3500204D3400204D3376
:1002000000204D3200204D3100204D300020473974
:100210003400204739330020473931002047393036
:10022000002047323000204732310020473139006A
:100230002047313800204731370020470047333806
:100240002E0047383000473300473200473100471F
:1002500030005B005D0D0A005B544C4F3A005D0DB1
:100260000A002C005B4739323A005D0D0A002C0071
:100270003A003330003238005B47005D0D0A003A27
:10028000002C005B5052423A00290D0A00206D619B
:10029000782074726176656C2C206D6D002061632E
:1002A00063656C2C206D6D2F7365635E3200206D6D
:1002B000617820726174652C206D6D2F6D696E0000
:1002C0002C20737465702F6D6D007A0079007800B2
:1002D0002028003D0024002028686F6D696E67208B
:1002E00070756C6C2D6F66662C206D6D290D0A0083
:1002F0002028686F6D696E67206465626F756E6334
:10030000652C206D736563290D0A2432373D00206A
:1003100028686F6D696E67207365656B2C206D6D45
:100320002F6D696E290D0A2432363D002028686F32
:100330006D696E6720666565642C206D6D2F6D6933
:100340006E290D0A2432353D00290D0A2432343D30
:10035000002028686F6D696E672064697220696E7D
:1003600076657274206D61736B3A002028686F6D3A
:10037000696E67206379636C652C20626F6F6C29EE
:100380000D0A2432333D00202868617264206C69B4
:100390006D6974732C20626F6F6C290D0A243232E0
:1003A0003D002028736F6674206C696D6974732C2E
:1003B00020626F6F6C290D0A2432313D00202872B3
:1003C00065706F727420696E636865732C20626F4C
:1003D0006F6C290D0A2432303D00202861726320A1
:1003E000746F6C6572616E63652C206D6D290D0AEA
:1003F0002431333D0020286A756E6374696F6E2066
:10040000646576696174696F6E2C206D6D290D0AC3
:100410002431323D00290D0A2431313D002028735A
:100420007461747573207265706F7274206D61737E
:100430006B3A00202870726F62652070696E2069C7
:100440006E766572742C20626F6F6C290D0A2431F0
:10045000303D0020286C696D69742070696E7320CE
:10046000696E766572742C20626F6F6C290D0A2498
:10047000363D0020287374657020656E61626C657E
:1004800020696E766572742C20626F6F6C290D0A7C
:1004900024353D00290D0A24343D0020286469726A
:1004A00020706F727420696E76657274206D61734E
:1004B0006B3A00290D0A24333D00202873746570BF
:1004C00020706F727420696E76657274206D61732E
:1004D0006B3A002028737465702069646C65206431
:1004E000656C61792C206D736563290D0A24323D9A
:1004F000002028737465702070756C73652C2075EE
:10050000736563290D0A24313D0024303D00242405
:10051000202876696577204772626C207365747451
:10052000696E6773290D0A24232028766965772070
:100530002320706172616D6574657273290D0A24E0
:100540004720287669657720706172736572207321
:1005500074617465290D0A2449202876696577201D
:100560006275696C6420696E666F290D0A244E20DD
:100570002876696577207374617274757020626C77
:100580006F636B73290D0A24783D76616C75652065
:100590002873617665204772626C20736574746994
:1005A0006E67290D0A244E783D6C696E65202873AC
:1005B000617665207374617274757020626C6F630C
:1005C0006B290D0A24432028636865636B206763E9
:1005D0006F6465206D6F6465290D0A245820286BAF
:1005E000696C6C20616C61726D206C6F636B290D9E
:1005F0000A2448202872756E20686F6D696E672026
:100600006379636C65290D0A7E20286379636C65C4
:10061000207374617274290D0A212028666565644F
:1006200020686F6C64290D0A3F202863757272651B
:100630006E7420737461747573290D0A6374726C1F
:100640002D7820287265736574204772626C290DBD
:100650000A000D0A4772626C20302E396A205B272F
:10066000242720666F722068656C705D0D0A005D3E
:100670000D0A00526573746F72696E672064656657
:1006800061756C74730050676D20456E640043683B
:1006900065636B20446F6F720044697361626C65BF
:1006A0006400456E61626C65640043617574696FD6
:1006B0006E3A20556E6C6F636B6564002724482783
:1006C0007C2724582720746F20756E6C6F636B0035
:1006D000526573657420746F20636F6E74696E75F4
:1006E00065005B000D0A00486F6D696E67206661EA
:1006F000696C0050726F6265206661696C004162CE
:100700006F727420647572696E67206379636C65BB
:1007100000536F6674206C696D697400486172647F
:10072000206C696D697400414C41524D3A20000DB6
:100730000A00496E76616C69642067636F646520A6
:1007400049443A00556E646566696E656420666565
:100750006564207261746500556E737570706F7298
:1007600074656420636F6D6D616E64004D6F6461CC
:100770006C2067726F75702076696F6C6174696F39
:100780006E004C696E65206F766572666C6F7700DF
:10079000486F6D696E67206E6F7420656E61626C64
:1007A000656400416C61726D206C6F636B004E6F0D
:1007B000742069646C6500454550524F4D20726548
:1007C0006164206661696C2E205573696E672064D0
:1007D000656661756C74730056616C7565203C20AC
:1007E0003320757365630053657474696E672064A4
:1007F000697361626C65640056616C7565203C20AC
:100800003000496E76616C69642073746174656D43
:10081000656E7400426164206E756D62657220665B
:100820006F726D61740045787065637465642063F0
:100830006F6D6D616E64206C6574746572006572B5
:10084000726F723A20006F6B0D0A000011241FBEF8
:10085000CFEFD8E0DEBFCDBF26E0A0E0B1E001C021
:100860001D92AD3CB207E1F70E941B120C943D387B
:100870000C940000439808953B9A0C943A048230FB
:1008800011F4439A08950C943A04CF93DF931F9286
:10089000CDB7DEB79091A305923049F089830E94CD
:1008A000811F89810F90DF91CF910C943F040F90AD
:1008B000DF91CF910895F999FECF92BD81BD81E07E
:1008C0008FBB80B50895F894F999FECF92BD81BD94
:1008D00081E08FBB40B54627842F992787FD9095EF
:1008E000262F30E082239323892B39F06F3F19F0B4
:1008F00060BD84E006C084E104C0442321F060BDF3
:1009000084E28FBBF99A789408959F92AF92BF9238
:10091000CF92DF92EF92FF920F931F93CF93DF93CB
:100920008C017A016B01C40ED51EEB01912C5C0188
:10093000A61AB70ACE018A0D9B1DCC15DD0591F0D4
:10094000911009C0692D772767FD7095272F221F09
:100950002227221F01C021E06991922E960E0E944B
:100960006304E8CF692DC8018E0D9F1DDF91CF91E3
:100970001F910F91FF90EF90DF90CF90BF90AF90BD
:100980009F900C9463049F92AF92BF92CF92DF929C
:10099000EF92FF920F931F93CF93DF938B017A0116
:1009A0006C01C40ED51EEC01912C5B01A81AB90A8A
:1009B000C5018C0F9D1FCC15DD0591F00E945B04D5
:1009C000911009C0292D332727FD3095232F221F91
:1009D0002227221F01C021E0922E980E8993E8CF92
:1009E000C8018E0D9F1D0E945B0421E030E0981627
:1009F00011F020E030E0C901DF91CF911F910F91FC
:100A0000FF90EF90DF90CF90BF90AF909F900895B0
:100A10008FE3EAE2F5E0DF011D928A95E9F76DE4E4
:100A200075E080E00E947826811103C087E00C9475
:100A3000921F089565EA75E081E495E00C94D03347
:100A40002F923F924F925F926F927F928F929F92DE
:100A5000AF92BF92CF92DF92EF92FF920F931F93CC
:100A6000CF93DF93CDB7DEB7AB970FB6F894DEBF69
:100A70000FBECDBF98A38F8F89E3E9E6F5E0DF01D4
:100A80001D928A95E9F78AE0EAE2F5E0AAE6B5E088
:100A900001900D928A95E1F71D8E212C312CA12C0D
:100AA000B12C19A2512C1E8E66246394712C08E07F
:100AB000402E9924939485E0882E8D8DEF8DF8A19A
:100AC000E80FF11D0081002309F48AC29FEB900F0B
:100AD0009A3110F00C941B0F8F5F8D8FAE01475E23
:100AE0005F4FBE01635E7F4F8F8D98A10E94DC1621
:100AF000882311F40C941D0FC98CDA8CEB8CFC8CC0
:100B0000C701B6010E94D0370E943835162F70E019
:100B100080E090E00E9466359B01AC01C701B60100
:100B20000E94EA3320E030E048EC52E40E940237B1
:100B30000E9465370E943835073421F00D3409F4DE
:100B400050C192C1183209F432C1E8F4143160F492
:100B5000113108F0D7C0143009F45AC008F48EC01F
:100B60001A30D9F10C94290F1C31B9F128F416313F
:100B700008F4F7C00C94290F1E3179F1163209F4EC
:100B80007DC00C94290F1D3309F40BC1A8F4153353
:100B900009F461C040F41B3209F4ECC0113309F4CC
:100BA000E9C00C94290F1C3310F00C94290F165334
:100BB0001093700589E000C11C3540F41A3508F027
:100BC000B0C0103509F49BC00C94290F1C3529F0D6
:100BD0001F3508F4BDC00C94290F6115710531F45F
:100BE000BE8DB1110C941F0FE1E0EE8F1C3199F016
:100BF00038F4143069F01A3009F0DBC082E02CC000
:100C0000153349F11C3559F11E3109F0D2C013C01A
:100C100090926905CEC06115710549F06A30710581
:100C200011F00C94290F24E02093690509C0F3E02A
:100C3000F093690505C06115710521F4809269057D
:100C400080E0BFC06A30710511F00C94290F36E0C6
:100C500030936905F5CF87E080936905AAC06115D7
:100C6000710549F06A30710511F00C94290F99E073
:100C700090936905E5CF40926905E2CFAE8DA11151
:100C80000C941F0FB2E0BE8F123089F028F41123AC
:100C900059F0113081F08FC0163281F0103579F1A2
:100CA000133009F088C007C010926A0584C0EE8D29
:100CB000E0936A0580C010936A057DC06E317105AE
:100CC000B1F048F46431710511F00C94290FF4E08F
:100CD000F0936A0512C06832710561F062337105E4
:100CE00011F00C94290F37E030936A0506C080920A
:100CF0006A0503C026E020936A0581E062C0409245
:100D00006A0559C0123129F0133139F010926E057D
:100D100002C090926E0582E04FC082E080936E0523
:100D20004BC06115710549F41A3519F410926D051F
:100D300002C090926D0583E044C06A30710511F0E5
:100D40000C94290F1A3511F40C94290F84E039C042
:100D50001D3519F490926B0502C010926B0585E069
:100D60002BC0143119F490926C0502C010926C05DE
:100D700086E022C08E8D81110C941F0F113331F447
:100D800010926F0588E093E09E8F1BC06A3071055A
:100D900011F00C94290F90926F0588E0A3E0AE8FBC
:100DA00010C0672B11F00C94290F8AE00AC087E06D
:100DB00003C080E001C081E0672B19F087E10C944B
:100DC0003C0FF30102C0EE0FFF1F8A95E2F7CF013F
:100DD0009F012A213B21232B09F443C085E10C9478
:100DE0003C0F672B59F7163018F4133058F017C022
:100DF000183010F40C94290F1A3000F11E3159F0FC
:100E00000C94290F123039F01E3129F0111120C035
:100E1000909271051DC082E08093710519C0143055
:100E200029F0153039F09092730506C082E0809366
:100E3000730502C0109273058CE00BC0193021F0CD
:100E400082E08093720502C0109272058DE001C0AD
:100E50008BE0930102C0220F331F8A95E2F7C9018C
:100E6000B8CFA82AB92A29CE802F992787FD909537
:100E7000A92FB92FFC01E654F109E531F10508F07D
:100E8000E8C7EC5CFF4F0C941D38C0927405D092FB
:100E90007505E0927605F092770580E07FC0C092FC
:100EA0007805D0927905E0927A05F0927B0539A118
:100EB000316039A381E072C0C0927C05D0927D057B
:100EC000E0927E05F0927F0589A1826089A382E08D
:100ED00065C0C0928005D0928105E0928205F092B3
:100EE000830599A1946099A383E058C01093840569
:100EF00084E054C0C701B6010E9433356093850574
:100F000070938605809387059093880585E046C099
:100F1000C0928905D0928A05E0928B05F0928C05EB
:100F200086E03CC0C0928D05D0928E05E0928F0580
:100F3000F092900587E032C0C0929105D092920560
:100F4000E0929305F092940588E028C0C09296053F
:100F5000D0929705E0929805F0929905A52DA16091
:100F60005A2E8AE01BC0C0929A05D0929B05E0924F
:100F70009C05F0929D05B52DB2605B2E8BE00EC0F6
:100F8000C0929E05D0929F05E092A005F092A10527
:100F9000E52DE4605E2E8CE001C089E08301082E1F
:100FA00002C0000F111F0A94E2F798012221332199
:100FB000232B09F046C721E633E002C0359527957B
:100FC0008A95E2F720FF09C020E030E0A901C701BF
:100FD000B6010E94C43487FD36C7202A312A6DCD60
:100FE000552029F03E8D311102C082E08E8F25FE02
:100FF0000EC08091850590918605A0918705B091DE
:10100000880580389649A849B1050CF01EC7809123
:101010006B05813031F4FE8DF230A1F520FE1FC743
:1010200031C080912B0581112DC020FE1BC0809105
:101030006C05813039F523E333E34BEC51E46091E7
:1010400074057091750580917605909177050E94E1
:1010500002376093740570937505809376059093BD
:10106000770510C08091380590913905A0913A0517
:10107000B0913B058093740590937505A093760518
:10108000B093770530FC10C0809134059091350500
:10109000A0913605B0913705809391059093920504
:1010A000A0939305B093940580916905813031F444
:1010B00026FC02C08CE1E0C6E89426F880916E051B
:1010C000882341F0813061F019A682E088A791E081
:1010D0009FA30BC022E029A731E038A71FA205C0BB
:1010E000A1E0A9A718A6B2E0BFA380916C0581304A
:1010F00021F0EE8DE33091F52AC0B6E9EB2EB5E094
:10110000FB2E00E010E0C52CD12CC601002E02C041
:10111000959587950A94E2F780FF10C023E333E3A7
:101120004BEC51E4D7016D917D918D919C910E9482
:101130000237F70160837183828393830F5F1F4FB0
:10114000F4E0EF0EF11C03301105F9F6D2CF8091D7
:101150006F05813019F424E0521279C68CE0EDE479
:10116000F5E0DE011D9601900D928A95E1F7B1FC44
:1011700009C0309169053F8F3230B9F0383009F439
:10118000B0C015C180917005873010F08DE174C634
:1011900090913005981769F3BE01635F7F4F0E94FD
:1011A0007826882309F465C6E4CF511002C08AE18D
:1011B00063C6C10180759927892B09F47BCF6091A3
:1011C000890570918A0580918B0590918C050E940C
:1011D000D0370E9438356730C8F680918405843155
:1011E00029F0823009F035C627FC33C68FEA282261
:1011F000662319F061506F8F03C0909170059F8F27
:10120000BE016F5F7F4F8F8D0E947826882309F47F
:1012100030C64090840560906505709066058090AA
:10122000670590906805DE0111967D01F6E9CF2EE5
:10123000F5E0DF2EA1E4AA2EA5E0BA2E00E010E032
:10124000E52DF0E0FEA3EDA38DA19EA1002E02C02E
:10125000959587950A94E2F780FF33C0F4E14F1229
:1012600026C0D50158962D913D914D915C915B978B
:101270006D917D918D919C910E94EA33F6012081C0
:101280003181428153810E94EA33D7016D937D936E
:101290008D939C9313970230A1F4A40193010E94B3
:1012A000EA33F70160837183828393830AC0F60176
:1012B00080819181A281B381F70180839183A28390
:1012C000B3830F5F1F4FF4E0EF0EF11C24E0C20E5A
:1012D000D11C34E0A30EB11C0330110509F0B4CFCA
:1012E0000FC1552009F463CF6090650570906605C5
:1012F000809067059090680506E915E0E1E4CE2E40
:10130000E5E0DE2E5E018DE0A80EB11CE12CF12C93
:10131000A52DB0E0B8A3AF8F8F8D98A10E2C02C081
:10132000959587950A94E2F780FF26C0F501208104
:10133000318142815381D6016D917D918D919C9136
:101340000E94EA33F80120813181428153810E9459
:10135000EA33D8016D937D938D939C931397B2E0FC
:10136000EB1214C0A40193010E94EA33F8016083D8
:101370007183828393830AC0F601808D918DA28D43
:10138000B38DF80180839183A283B383FFEFEF1ABB
:10139000FF0A0C5F1F4F24E0C20ED11C34E0A30EE5
:1013A000B11C83E0E816F10409F0B6CFA8C09E8D09
:1013B000933059F4AF8DA53009F48FC0A73009F4EC
:1013C00099C0A33009F09BC080C0552099F340908C
:1013D0006D058090650590906605A0906705B090BA
:1013E000680571E4C72E75E0D72E06E915E03E01C9
:1013F000BDE06B0E711CE12CF12CE52DF0E0FEA39D
:10140000EDA38DA19EA10E2C02C0959587950A94FF
:10141000E2F780FD0BC0F60180819181A281B3814A
:10142000F80180839183A283B3833EC0FF8DF730A0
:10143000D9F1411028C0D60158962D913D914D917A
:101440005C915B97F30160817181828193810E943D
:10145000EB33D8012D913D914D915C910E94EB337E
:10146000F8016083718382839383F2E0EF121CC0E2
:10147000A50194010E94EB33D8016D937D938D9368
:101480009C93139711C0F6012081318142815381D1
:10149000D8016D917D918D919C910E94EB33F80163
:1014A0006083718382839383FFEFEF1AFF0A24E046
:1014B000C20ED11C0C5F1F4F34E0630E711C83E021
:1014C000E816F10409F09DCF75CF511001C01E8EB2
:1014D000BE016F5F7F4F86E007C0511001C01E8EB6
:1014E000BE016F5F7F4F87E00E947826882309F452
:1014F000C0C405C080916A05823008F0ACC41F8E5C
:1015000010916A05183041F4552009F4B3C19E8D3D
:10151000913009F0A2C48BC2AE8DA23009F0AAC1ED
:101520001123D9F020E030E0A90160917405709199
:10153000750580917605909177050E94C4348823C3
:1015400009F48DC4143028F4123058F4113029F005
:101550006EC2183008F44DC16AC2511068C21E8EA6
:101560008CC1552009F423CEFFA1EF2FF0E0FEA39C
:10157000EDA338A5232F30E03BA72AA781E090E018
:101580003C0108A402C0660C771C0A94E2F70FA085
:1015900002C0880F991F0A94E2F7682A792A852DDC
:1015A00090E086219721892B09F45BC4CF01880F35
:1015B000991F880F991FFC01E759FA4FDC01A65DBE
:1015C000BA4F57962D913D914D915C915A9765A5D3
:1015D00076A587A590A90E94EA336B017C018AA5B4
:1015E0009BA5880F991F880F991FFC01E759FA4F97
:1015F000DC01A65DBA4F57962D913D914D915C91BE
:101600005A9765A576A587A590A90E94EA334B0154
:101610005C0127FE40C0E89427F8209196053091A0
:1016200097054091980550919905609141057091F9
:10163000420580914305909144050E94C434811174
:1016400020C120919A0530919B0540919C055091B5
:101650009D056091450570914605809147059091E3
:1016600048050E94C43481110CC120919E0530911F
:101670009F054091A0055091A10560914905709189
:101680004A0580914B0590914C050E94C43481110C
:10169000F8C081E2F1C3F9A14F2E512C64207520CE
:1016A000672809F4E0C321EF222280916C05813084
:1016B00009F45AC00AA51BA5000F111F000F111F26
:1016C00003591A4FD8011B962D913D914D915C9174
:1016D0001E97C501B4010E94EA332B013C01ADA065
:1016E000BEA0AA0CBB1CAA0CBB1CF501E359FA4F07
:1016F0005F012385348545855685C701B6010E9463
:10170000EA33A30192010E9499176B017C01D80171
:101710001B962D913D914D915C911E97F50163852E
:101720007485858596850E9499174B015C016093AD
:101730008D0570938E0580938F05909390059B0186
:10174000AC01C701B6010E94EA336B017C01E89449
:10175000F7F82AE037ED43EA5BE3C701B6010E94E0
:10176000C73618164CF163C188E7682E85E0782EDD
:1017700000E010E0C201002E02C0959587950A9402
:10178000E2F780FF10C023E333E34BEC51E4D301D5
:101790006D917D918D919C910E940237F301608340
:1017A0007183828393830F5F1F4FF4E06F0E711C70
:1017B00003301105F9F67ECF20E030E040E05FE332
:1017C000C701B6010E94C73618160CF462CF2FE687
:1017D00032E143E85AE3C501B4010E9402379B019C
:1017E000AC01C701B6010E94C73618160CF451CFE0
:1017F0001EC1552009F4DBCC209196053091970548
:10180000409198055091990560914105709142056C
:1018100080914305909144050E94C434811107C111
:1018200020919A0530919B0540919C0550919D0512
:101830006091450570914605809147059091480556
:101840000E94C4348111F3C020919E0530919F0500
:101850004091A0055091A1056091490570914A05FC
:1018600080914B0590914C050E94C434882309F463
:1018700010CFDDC02E8D2111DAC0C1018E7D9C7F7D
:10188000D9C080916C058130B1F423E333E34BEC94
:1018900051E460918D0570918E0580918F05909136
:1018A00090050E94023760938D0570938E0580939A
:1018B0008F059093900540908D0550908E05609017
:1018C0008F057090900520E030E040E850E4C301BF
:1018D000B2010E940237A30192010E9402372B013C
:1018E0003C01A7019601C701B6010E9402379B0186
:1018F000AC01C301B2010E94EA332B013C01A501F6
:101900009401C501B4010E9402379B01AC01C301DF
:10191000B2010E94EA332B013C0120E030E0A90132
:101920000E94C43487FDA7C2C301B2010E948F3751
:101930002B013C01A5019401C701B6010E94991732
:101940009B01AC01C301B20190580E94CB342B0122
:101950003C0180916A05833021F477FA709477F81E
:10196000709480918D0590918E05A0918F05B09116
:10197000900589A39AA3ABA3BCA320E030E0A90102
:10198000BC01CD010E94C43487FF11C077FA709466
:1019900077F8709489A19AA1ABA1BCA1B0588093AB
:1019A0008D0590938E05A0938F05B09390050DA1A2
:1019B0001EA1000F111F000F111F03591A4FA30181
:1019C0009201C501B4010E9402379B01AC01C7011D
:1019D000B6010E94EA3320E030E040E05FE30E947D
:1019E0000237D8011B966D937D938D939C931E9720
:1019F0000AA51BA5000F111F000F111F03591A4F35
:101A0000A3019201C701B6010E9402379B01AC01FC
:101A1000C501B4010E94EB3320E030E040E05FE319
:101A20000E940237F8016387748785879687C10112
:101A30008E7D907E892B09F018C28091850590914A
:101A40008605A0918705B091880580933D05909308
:101A50003E05A0933F05B093400580916B058093B0
:101A60002B058091740590917505A0917605B09134
:101A700077058093380590933905A0933A05B09384
:101A80003B05C0909105D0909205E0909305F090B1
:101A90009405A701960160913405709135058091F8
:101AA0003605909137050E94C4348823C1F0809197
:101AB0003305882321F0B701A6010E943A288091BE
:101AC000910590919205A0919305B0919405809312
:101AD000340590933505A0933605B0933705809172
:101AE000950580933C058091730590913305981777
:101AF00071F0409134055091350560913605709133
:101B000037050E943A2880917305809333058091B0
:101B1000720590913205981731F00E94450480912A
:101B200072058093320580916905813051F460918E
:101B3000890570918A0580918B0590918C050E9492
:101B4000A11580916E0580932E0580916C05809380
:101B50002C053E8D3330F9F480916F0580932F056D
:101B6000813089F480919E0590919F05A091A005F8
:101B7000B091A1058093650590936605A0936705D4
:101B8000B093680508C01092650510926605109222
:101B9000670510926805809170059091300598173F
:101BA00059F0809330058CE0FE013D96ADE4B5E040
:101BB00001900D928A95E1F780916D0580932D0536
:101BC0008091690590E0FC013297E830F10508F05A
:101BD0004BC0E75BFF4F0C941D38BE016F5F7F4F1A
:101BE0008F8D0E942825809130059F8D89133CC0E0
:101BF0008CE0FE013196ADE4B5E01AC0AE8DAA23AB
:101C000049F020E040E050E060E87FEB86E995E0B5
:101C10000E94541220E040E050E060E87FEBCE01EB
:101C200001960E9454128CE0FE013196A1E4B5E0C9
:101C300001900D928A95E1F717C061E475E086E0A6
:101C400003C061E475E087E00E9428250DC08CE0A8
:101C5000E6E9F5E0A9E5B5E0EBCF8CE0E9E5F5E0F4
:101C6000DF011D928A95E9F780916A0580932A0524
:101C7000883009F498C0BE8DB23009F094C090E06D
:101C80008830910508F086C0FC01EF5AFF4F0C9494
:101C90001D3820E040E050E060E87FEB0AC0409152
:101CA00038055091390560913A0570913B052091B6
:101CB0002B0586E995E00E9454126CC0C09038054F
:101CC000D0903905E0903A05F0903B0500918D05E4
:101CD00010918E0520918F053091900581E08F93B2
:101CE000E9A5EF93F8A5FF9315C0C0903805D090F3
:101CF0003905E0903A05F0903B0500918D05109173
:101D00008E0520918F05309190051F9289A58F93A4
:101D100098A59F938FA0A0902B0548E755E066E912
:101D200075E081E495E00E94A2120F900F900F9051
:101D300031C0409138055091390560913A05709154
:101D40003B05E12C0AC0409138055091390560915E
:101D50003A0570913B05EE24E39400E015C04091F4
:101D600038055091390560913A0570913B05E12C99
:101D70000AC0409138055091390560913A0570913B
:101D80003B05EE24E39401E020912B0586E995E0E4
:101D90000E9413168CE0E6E9F5E0A1E4B5E00190BD
:101DA0000D928A95E1F78091710580933105882322
:101DB00009F45DC00E94811F909131058091A305B7
:101DC000913069F48230A1F19FB7F8948091270592
:101DD0008860809327059FBF0E94D41D29C091E091
:101DE00090932A0510922E0510922D0510922B0526
:101DF0001092300510923305109232058230A9F00E
:101E0000BE01635F7F4F80E00E947826882389F1BE
:101E10008CE0FE013D96ADE4B5E001900D928A950F
:101E2000E1F70E94DE270E943A0487E00E940A2020
:101E3000109231051CC081E01FC082E01DC088E106
:101E40001BC089E119C084E017C08BE115C085E291
:101E500013C084E111C08EE10FC08FE10DC086E197
:101E60000BC080E209C083E207C084E205C080E0C5
:101E700003C087E001C082E2AB960FB6F894DEBFE4
:101E80000FBECDBFDF91CF911F910F91FF90EF90CB
:101E9000DF90CF90BF90AF909F908F907F906F908A
:101EA0005F904F903F902F900895EBE6F0E0808197
:101EB000897E8083E8E6F0E080818E7F80830895CC
:101EC00084B1897E84B985B1866185B98091BD066A
:101ED00083FF0BC080916B00866180936B008091C3
:101EE000680081608093680008950C94550FCF922C
:101EF000DF92FF920F931F93CF93DF931F92CDB783
:101F0000DEB793B196718091BD0686FD02C086E171
:101F100098279923D9F0C12CD12CF12C01E010E0A5
:101F20008C2D99830E94D4279981892339F09801B7
:101F30000C2C01C0220F0A94EAF7F22A8FEFC81A7C
:101F4000D80AE3E0CE16D10459F701C0F12C8F2D49
:101F50000F90DF91CF911F910F91FF90DF90CF9065
:101F600008951F920F920FB60F9211242F933F9353
:101F70004F935F936F937F938F939F93AF93BF9391
:101F8000EF93FF938091A305813071F08091290533
:101F900081110AC00E94B1169FB7F894809129055B
:101FA0008360809329059FBFFF91EF91BF91AF910F
:101FB0009F918F917F916F915F914F913F912F9161
:101FC0000F900FBE0F901F9018952F923F924F9237
:101FD0005F926F927F928F929F92AF92BF92CF92B9
:101FE000DF92EF92FF920F931F93CF93DF93CDB7C2
:101FF000DEB767970FB6F894DEBF0FBECDBF582E81
:102000008091A2058111A1C124EAA22E26E0B22E60
:102010009E01235F3F4F190100E010E0C12CD12C3D
:102020007601652C712C802F0E94C027D1018D93E1
:102030001D01C301002E02C0959587950A94E2F711
:1020400080FF1AC020E030E040EC5FEBF5016081DA
:102050007181828193810E940237688B472E4C01E7
:10206000262F372FAC01C701B6010E94C7361816BC
:102070001CF0C888D42C74010F5F1F4FF4E0AF0E22
:10208000B11C0330110579F68090C3069090C40608
:10209000A090C506B090C60624E0288B01E065EA52
:1020A00075E0CE0101960E94D0332090BE06312CFF
:1020B000FE01319685EA95E09F8B8E8B80E090E063
:1020C000412C10E0B701A60170589301082E02C000
:1020D000359527950A94E2F720FF28C04394AE89EE
:1020E000BF891D921D921D921C9213979101082E7B
:1020F00002C0359527950A94E2F720FF03C000231C
:1021000019F007C0002329F0C082D182E282F38255
:1021100004C040835183628373832DE030E02C0F31
:102120003D1F280F391FD9012C91122B019634968F
:102130002E893F892C5F3F4F3F8B2E8B833091053B
:1021400021F6642D70E080E090E00E9464350E94EA
:102150008F379B01AC01C501B4010E940237AB016E
:10216000BC011093BE054A8B5B8B6C8B7D8B0E94F0
:102170002A1C20E04A895B896C897D89CE01019601
:102180000E9431190E94882B0E9462280023E9F0E6
:102190000E94770FFE013D9620E030E090E06191D3
:1021A000462F412359F0AC01022E02C055954795A8
:1021B0000A94E2F740FF02C0609516232F5F3F4F5D
:1021C0002330310561F71093BE050E94882B809162
:1021D00027058473C1F080912705807329F00E9440
:1021E000B1160E94D41DB1C00111AAC00E94770F80
:1021F0008521A9F79FB7F894809127058B7F80935D
:1022000027059FBF04C0812F8C7109F0BFCF0E94AA
:10221000182B0E94DA188091C7069091C8060E9478
:102220008E1731E00327C9F020E030E040EA50E4A7
:102230006091C9067091CA068091CB069091CC0638
:102240000E9402376B017C018090BF069090C0060F
:10225000A090C106B090C20610C0C090C906D09030
:10226000CA06E090CB06F090CC068090C306909012
:10227000C406A090C506B090C60688898150888B98
:1022800081110DCF8091BE06A82FB0E0B98BA88B2D
:10229000C090C906D090CA06E090CB06F090CC065C
:1022A0001601270157FA509457F8509480E8A82E49
:1022B00086E0B82E95EA892E95E0992E00E010E090
:1022C000C301002E02C0959587950A94E2F780FF1E
:1022D00029C088899989002E02C0959587950A940E
:1022E000E2F7F50180FF0EC024A135A146A157A158
:1022F000C701B6010E94EB33D5012D913D914D915F
:102300005C9106C02081318142815381C201B101BB
:102310000E9402370E94D236D4016D937D938D9333
:102320009C9313970F5F1F4FB4E08B0E911CE4E05A
:10233000AE0EB11C0330110519F60E942A1C05C00F
:102340008091270582FF56CF4ACF67960FB6F89443
:10235000DEBF0FBECDBFDF91CF911F910F91FF90D8
:10236000EF90DF90CF90BF90AF909F908F907F9035
:102370006F905F904F903F902F900895CF92DF9293
:10238000EF92FF920F931F93CF93DF938C01C4EAD8
:10239000D6E0F801C190D190E190F1908F0120E05A
:1023A00030E0A901C701B6010E94C736181654F0E3
:1023B0002991399149915991C701B6010E94C434BC
:1023C00087FF2BC08091A3058830A1F00E94B11631
:1023D0009FB7F894809129058560809329059FBF58
:1023E000DF91CF911F910F91FF90EF90DF90CF90F1
:1023F0000C94D41D9FB7F894809127058860809332
:1024000027059FBF0E94D41D8091A20581110AC09B
:102410008091A3058111F6CFD9CFF6E0C03BDF074D
:1024200009F0B7CFDF91CF911F910F91FF90EF90FF
:10243000DF90CF9008950E9445240E94B3270E9408
:10244000442B0E94D3318DE1E2EAF5E0DF011D92D9
:102450008A95E9F781E08093A20578948091BD0682
:1024600084FF03C081E08093A3050E9413250E948E
:1024700008050E94E4270E943C040E94600F0E940D
:10248000A01D0E94DA180E94182B0E942A1C0E948C
:102490001A051092A2051092270510922905109294
:1024A000A4050E94FF1EE1CFEF92FF921F93CF93EE
:1024B000DF9300D000D0CDB7DEB77C01122F809122
:1024C000BD0685FF0BC0C70149835A836B837C839C
:1024D0000E94BE117C816B815A8149818091A30544
:1024E000823031F149835A836B837C830E94D41DEF
:1024F0008091A20581111CC00E94291949815A812D
:102500006B817C81882339F00E94F61E49815A81B3
:102510006B817C81E7CF212FC7010F900F900F9027
:102520000F90DF91CF911F91FF90EF900C94311994
:102530000F900F900F900F90DF91CF911F91FF9010
:10254000EF9008952F923F924F925F926F927F92F9
:102550008F929F92AF92BF92CF92DF92EF92FF92B3
:102560000F931F93CF93DF93CDB7DEB7E7970FB6E7
:10257000F894DEBF0FBECDBF9C8B8B8B1B013A0145
:1025800009871A872B873C87AF8A2D961FAD2D9719
:102590002E962FAD2E97298B2F963FAD2F973D8BE3
:1025A00084E0889EA00111245A834983AB89BC89A9
:1025B000A40FB51FB98FA88F460D571D5B8F4A8F8B
:1025C000FA0180809180A280B3802D913D914D9140
:1025D0005C91C501B4010E94EB336C8F7D8F8E8FAF
:1025E0009F8FF4E01F9F800111242B893C89200FCD
:1025F000311F39A328A3A301400F511F5BA34AA396
:10260000DA014D905D906D907C90F90120813181CF
:1026100042815381C301B2010E94EB336CA37DA3BD
:102620008EA39FA3A501940150582D873E874F8705
:10263000588BD301C201B0588D839E83AF83B88776
:10264000E981FA81E20DF31D2C8D3D8D4E8D5F8D5C
:1026500060817181828193810E94EA332B013C0168
:10266000F101E00FF11F2CA13DA14EA15FA16081FE
:102670007181828193810E94EA334B015C01A30145
:1026800092016D857E858F8598890E9402376983C6
:102690007A838B839C83A50194016D817E818F81D8
:1026A00098850E9402379B01AC0169817A818B81F8
:1026B0009C810E94EB3369837A838B839C83A50181
:1026C00094016D857E858F8598890E9402374B0124
:1026D0005C01A30192016D817E818F8198850E94AA
:1026E00002379B01AC01C501B4010E94EA33298184
:1026F0003A814B815C810E945E342B013C019D89B3
:10270000992399F02DEB37E346E055EBC301B20175
:102710000E94C73687FD1DC02BED3FE049EC50E419
:10272000C301B2010E94EA3312C02DEB37E346E049
:1027300055E3C301B2010E94C434181654F02BEDC6
:102740003FE049EC50E4C301B2010E94EB332B019E
:102750003C018090B9069090BA06A090BB06B0905C
:10276000BC0629853A854B855C85CA01B9010E9462
:10277000EB33A50194010E94EA339B01AC01C50132
:10278000B4010E9402370E948F374B015C0120E0A8
:1027900030E040E05FE3C301B2010E9402372985C7
:1027A0003A854B855C850E9402379F77A50194018D
:1027B0000E94CB340E94A1350E9438357E8B6D8BF0
:1027C000DB01AB2B09F486C14B01A12CB12CBF89D5
:1027D000BB2361F0C501B4010E9464359B01AC01CB
:1027E000C701B6010E9402376B017C01C501B4012B
:1027F0000E9464354B015C019B01AC01C301B20135
:102800000E94CB3469877A878B879C87F989E4E0BB
:10281000FE9FC00111242B893C89280F391F3A8B58
:10282000298BF101E80FF91FD9012D913D914D91AF
:102830005C9160817181828193810E94EA33A5015C
:1028400094010E94CB346CAB7DAB8EAB9FAB2985E2
:102850003A854B855C85CA01B9010E9402379B010C
:10286000AC0160E070E080E090E40E94EA334B014C
:102870005C012BEA3AEA4AE25EE369857A858B8558
:102880009C850E9402372B013C0120E030E040E8AB
:1028900050E4C501B4010E94EB339B01AC01C301BC
:1028A000B2010E94023768A779A78AA79BA720E0F8
:1028B00030E040E05FE3C501B4010E9402376CA73D
:1028C0007DA78EA79FA7198201E010E0ED89FE8900
:1028D0000E171F0709F4FEC0B981BC3008F04AC0CA
:1028E0002CA53DA54EA55FA56D817E818F81988524
:1028F0000E9402374B015C0128A539A54AA55BA5BA
:102900006D857E858F8598890E940237A501940187
:102910000E94EB33B62EA72E982E892E2CA53DA50E
:102920004EA55FA56D857E858F8598890E940237AB
:102930002B013C0128A539A54AA55BA56D817E81A7
:102940008F8198850E9402379B01AC01C301B201BF
:102950000E94EA336D877E878F87988BE981EF5FCE
:10296000E9838B2D9A2DA92DB82D8D839E83AF835E
:10297000B8876EC0B80180E090E00E946435298578
:102980003A854B855C850E9402374B015C010E94B1
:10299000C8346D837E838F839887C501B4010E94FC
:1029A00085374B015C01EA8DFB8D80819181A2818D
:1029B000B3819C01AD01505829833A834B835C83DA
:1029C000AAA1BBA18D919D910D90BC91A02D88AB2A
:1029D00099ABAAABBBAB2D813E814F8158856981F4
:1029E0007A818B819C810E9402372B013C01A501D9
:1029F000940168A979A98AA99BA90E9402379B0121
:102A0000AC01C301B2010E94EB336D877E878F87D3
:102A1000988BA501940169817A818B819C810E94A8
:102A200002374B015C012D813E814F81588568A999
:102A300079A98AA99BA90E9402379B01AC01C50113
:102A4000B4010E94EA336D837E838F839887198255
:102A50002D853E854F8558896C8D7D8D8E8D9F8D02
:102A60000E94EB33E88DF98D6083718382839383B9
:102A70002D813E814F8158856CA17DA18EA19FA1A2
:102A80000E94EB33A8A1B9A16D937D938D939C9384
:102A900013972CA93DA94EA95FA9E989FA896081FC
:102AA0007181828193810E94EB33A989BA896D93E8
:102AB0007D938D939C9313972F89B701A6018B89E2
:102AC0009C890E9454128091A205811121C00F5F40
:102AD0001F4FFCCE2F89B701A601C101E7960FB6A3
:102AE000F894DEBF0FBECDBFDF91CF911F910F9144
:102AF000FF90EF90DF90CF90BF90AF909F908F901E
:102B00007F906F905F904F903F902F900C94541255
:102B1000E7960FB6F894DEBF0FBECDBFDF91CF9121
:102B20001F910F91FF90EF90DF90CF90BF90AF90EB
:102B30009F908F907F906F905F904F903F902F90DD
:102B400008958F929F92AF92BF92CF92DF92EF92B1
:102B5000FF924B015C018091A305823009F447C0CC
:102B600020E030E040EA51E4C501B4010E940237A0
:102B70000E94A1350E9438356B017C010E94811FA3
:102B800020E030E04AE754E4C501B4010E94023776
:102B90004B015C0182E38C9DB0018D9D700D112471
:102BA00080E090E00E9464359B01AC01C501B40156
:102BB0000E94EA330E94A1350E943835CB010E9461
:102BC0008E17C114D10499F00E94D41D21E0C21ABD
:102BD000D1088091A20581110AC08FEF90E722E011
:102BE000815090402040E1F700C00000EACFFF9004
:102BF000EF90DF90CF90BF90AF909F908F9008950F
:102C00000E94550F84E00E94E50F83E00E94E50FCB
:102C10000E94D41D8091A205811104C00E941A0552
:102C20000C94600F0895CF92DF92EF920F93CF93A1
:102C3000DF9300D000D01F92CDB7DEB76C0180913A
:102C4000A305823009F481C02D8349835A836B83A5
:102C50007C830E94811F1092BD05802F0E94A31DBE
:102C60000E94B51D2D8149815A816B817C81882309
:102C7000A1F09FB7F8948091290580618093290580
:102C80009FBF2D8349835A836B837C830E94D41D0D
:102C90007C816B815A8149812D818091A2058111AE
:102CA00054C0C6010E94541281E0809328059FB74A
:102CB000F894809127058260809327059FBF0E942A
:102CC000D41D8091A205811140C08091A30581117E
:102CD000F6CF809128058130A9F4EE2051F08CE0E8
:102CE000E5EAF5E0A1EBB5E001900D928A95E1F7F8
:102CF0000CC09FB7F89480912905806180932905C5
:102D00009FBF03C081E08093BD05109228050E94FB
:102D1000D41D8091A205811118C00E94182B0E9419
:102D2000DA180E942A1C65EA75E0C6010E94D033B9
:102D30000F900F900F900F900F90DF91CF910F9108
:102D4000EF90DF90CF900C94A2210F900F900F90F6
:102D50000F900F90DF91CF910F91EF90DF90CF9078
:102D600008958091270584FD26C09FB7F89480912F
:102D700027058061809327059FBF0E94DE270E9460
:102D80003A048091A305982F9C7021F49091A4059A
:102D9000913089F49FB7843029F4F8948091290503
:102DA000806204C0F8948091290588608093290589
:102DB0009FBF0C94822808956F927F928F929F926A
:102DC000AF92BF92CF92DF92EF92FF920F931F9339
:102DD000CF93DF937C018B016A01FB018081F701B6
:102DE000E80FF11D2081EF012D3229F42296218177
:102DF0006624639407C02B3211F0219602C02296FC
:102E00002181612CA12CB12C712C60E070E0CB01F0
:102E1000FE0130ED932E920E29E02915C8F0B394EF
:102E200028E02B1588F0A1107A94A5E0B0E09B0172
:102E3000AC010E942338660F771F881F991F690D08
:102E4000711D811D911D0BC0A11009C0739407C095
:102E50002EEF921207C0A11005C0AA24A3942196B8
:102E60002081D6CFBB2009F449C00E9464354B01B4
:102E70005C0120E030E0A9010E94C434882361F1A4
:102E80008FEF78166CF42AE037ED43E25CE3C5017E
:102E9000B4010E9402374B015C0173947394F0CF2C
:102EA00078120BC02DEC3CEC4CEC5DE3C501B40199
:102EB0000E9402374B015C010FC0772069F020E0CF
:102EC00030E040E251E4C501B4010E9402374B01F9
:102ED0005C017A9417149CF3662021F0B7FAB09441
:102EE000B7F8B094F60180829182A282B382CE19A3
:102EF000DF09C150F801C08381E001C080E0DF91AB
:102F0000CF911F910F91FF90EF90DF90CF90BF90E6
:102F1000AF909F908F907F906F900895009741F0B1
:102F2000EFE9FFE03197F1F700C000000197F6CF1D
:102F300008958F929F92AF92BF92CF92DF92EF92BD
:102F4000FF9269017A019B01AC010E9402374B019B
:102F50005C01A7019601C701B6010E9402379B01DF
:102F6000AC01C501B4010E94EB33FF90EF90DF90FC
:102F7000CF90BF90AF909F908F900C948F374F92CF
:102F80005F926F927F928F929F92AF92BF92CF92F9
:102F9000DF92EF92FF920F931F93CF93DF931091E5
:102FA0001E01111101C012E1115000911C011017F6
:102FB00009F4EFC089E2189FE0011124C05EDE4FE2
:102FC0008D889E88AF88B88C69A17AA18BA19CA1BD
:102FD0009B01AC010E94EB332DA13EA14FA158A54E
:102FE0000E9402376B017C019B01AC01B401C50159
:102FF0000E94C43487FF02C064017501A601B701B5
:10300000498B5A8B6B8B7C8B111101C012E1772499
:103010007A94710E701619F029E2622E27C0809101
:103020001F01081351C00E94662B4EC0679C80018F
:103030001124005E1E4F711002C092E1792E7A9425
:1030400080911F01781202C00E94662BF801C5888A
:10305000D688E788F08CA7019601618972898389F7
:1030600094890E94C434811106C0E80180911C013A
:103070007812DCCF29C0F80161A172A183A194A1CB
:103080009B01AC010E94EB33F80125A136A147A1B9
:1030900050A50E94023729893A894B895C890E9490
:1030A000EB334B015C01A70196010E94C434F80187
:1030B00087FF05C0818A928AA38AB48AD6CFC18A43
:1030C000D28AE38AF48AD1CF60901C01F9E26F9E24
:1030D00080011124005E1E4F77247394760C82E1E8
:1030E000781201C0712C50901E0189E2482E75148F
:1030F00009F44DC0479CE0011124C05EDE4FF80189
:1031000081889288A388B488C988DA88EB88FC888B
:10311000A7019601C501B4010E94C43487FF23C0F2
:10312000F80161A172A183A194A19B01AC010E944D
:10313000EB33F80125A136A147A150A50E94023723
:103140009B01AC01C501B4010E94EB334B015C0152
:10315000A70196010E94C43487FF05C0898A9A8A14
:10316000AB8ABC8A672C2D893E894F89588D698925
:103170007A898B899C890E94C434811101C0672C93
:103180007394F2E17F1201C0712C8E01B0CF609276
:103190001C01DF91CF911F910F91FF90EF90DF9075
:1031A000CF90BF90AF909F908F907F906F905F90E7
:1031B0004F9008958CE1E0E0F1E0DF011D928A95E7
:1031C000E9F710921F0110921E0181E080931D010A
:1031D00010921C01089590911F0180911E01891782
:1031E00069F081E0890F823109F480E020911C01AF
:1031F000921302C080931C0180931F010895809157
:103200001F0190911E01981739F029E2829FC00199
:103210001124805E9E4F089580E090E00895E09133
:103220001F01EF5FE23109F4E0E080911E01E81731
:1032300061F089E2E89FF0011124E05EFE4F6189B0
:103240007289838994890C948F3760E070E0CB0198
:10325000089581E020911F0190911D01291380E0C4
:1032600008952F923F924F925F926F927F928F922A
:103270009F92AF92BF92CF92DF92EF92FF920F9305
:103280001F93CF93DF93CDB7DEB7AD970FB6F8940A
:10329000DEBF0FBECDBF142F052F6B8F7C8F822E0C
:1032A00020911E0139E2239F10011124F101E05EFB
:1032B000FE4F1F01158616861786108A15A216A2C4
:1032C00017A210A6108249E956E766E97EE741A3F6
:1032D00052A363A374A35C0140E8E42E46E0F42EFD
:1032E0009E01235F3F4F38A32F8F80E091E09E8F98
:1032F0008D8F6F01FE013196FAA3E9A3912CF501A0
:1033000061917191819191915F01F70120813181EA
:10331000428153810E9402370E94D236EF8DF8A17C
:103320006193719381939193F8A3EF8FED8DFE8D4F
:103330004190519061907190FE8FED8F64197509E5
:10334000860997092B013C0197FF07C044245524A7
:103350003201461A570A680A790AF60141825282F6
:1033600063827482F101258536854785508942162E
:1033700053066406750610F429013A01F1014586E9
:1033800056866786708A0E946635F70120813181F2
:10339000428153810E94CB342B013C01E9A1FAA167
:1033A0006193719381939193FAA3E9A320E030E0B4
:1033B000A9010E94C43487FF0AC0F1019081892DC0
:1033C0009DA70E94CA279DA5892BF1018083A30197
:1033D0009201C301B2010E940237F10125A136A179
:1033E00047A150A50E94EB33F10165A376A387A303
:1033F00090A79394F4E0EF0EF11C24E0C20ED11CD0
:1034000033E093127CCF0E948F376B017C01F10176
:1034100065A376A387A390A785859685A785B089A0
:10342000892B8A2B8B2B09F4FCC120E030E0A90109
:10343000612F702F8B8D9C8D0E94C43487FD21C01D
:10344000882061F0A7019601612F702F8B8D9C8DD4
:103450000E940237162F072F8B8F9C8F20E030E0C1
:1034600040E85FE3612F702F8B8D9C8D0E94C434E8
:1034700087FF0DC010E000E030E83B8F8FE38C8FBA
:1034800006C019E906E7F6E9FB8F2EE72C8FA701A6
:10349000960160E070E080E89FE30E94CB3469A76A
:1034A0007AA78BA79CA7ECE0F1E0FAA3E9A32CE8AC
:1034B00036E038A32F8FCE010D969A8F898FFE01AB
:1034C0003196FE8FED8FC12CD12C7601ED8DFE8DC6
:1034D00080809180A280B38020E030E0A901C50106
:1034E000B4010E94C434882309F47FC029A53AA5F9
:1034F0004BA55CA5C501B4010E9402374B015C01DC
:10350000ED8DFE8D60837183828393839B01AC017B
:1035100060E070E080E89FE30E94CB342B013C0127
:10352000E89477F8EF8DF8A12081318142815381B1
:10353000C301B2010E9402376BA37CA38DA39EA39B
:103540009B01AC01612F702F8B8D9C8D0E94C43428
:1035500087FF06C01BA30CA3FB8DFDA32C8D2EA300
:10356000F101F1A1FB8FF101F2A1FC8FF101F3A1B7
:10357000FFA3F101F4A1F8A7EF8DF8A1248535850B
:1035800046855785C301B2010E9402373B018C0179
:103590009B01AC016B8D7C8D8FA198A50E94C434DA
:1035A00087FF04C06B8C7C8C0FA118A5C301D801C8
:1035B000F10181A392A3A3A3B4A3E9A1FAA120815D
:1035C000318142815381C501B4010E9402379B01C0
:1035D000AC01C701B6010E94EA336B017C011BA15B
:1035E0000CA1FDA1FB8F2EA12C8F8D8D9E8D04969D
:1035F0009E8F8D8FE9A1FAA13496FAA3E9A32F8DAE
:1036000038A12C5F3F4F38A32F8FE98DFA8D8E178D
:103610009F0709F05BCF90911E0180911F019813C5
:1036200006C0F101118A128A138A148A0BC02FEE88
:103630003FEF4FE75FE3C701B6010E94C736181698
:1036400034F4F101118E128E138E148E5BC02FEEA6
:103650003FEF4FE75FEBC701B6010E94C736181670
:1036600044F03FEEC32EDD24DA943FE7E32E3FEB38
:10367000F32EA701960160E070E080E89FE30E94CE
:10368000EA3320E030E040E05FE30E9402370E942E
:103690008F376B017C012091B5063091B6064091C1
:1036A000B7065091B806F10161A172A183A194A15E
:1036B0000E940237A70196010E9402374B015C016C
:1036C000A701960160E070E080E89FE30E94EA3382
:1036D0009B01AC01C501B4010E94CB346B017C019C
:1036E00020E030E0A9010E94C43487FF04C0C12C4F
:1036F000D12CE12CF12CA601B701F101418F528FA1
:10370000638F748F212F302F4B8D5C8D612F702F25
:103710008B8D9C8D0E940237162F072FF82EE92ED5
:10372000862F902FAF2DBE2DF101858F968FA78FFD
:10373000B0A3A18CB28CC38CD48C60901801709013
:10374000190180901A0190901B019301A401612F2F
:10375000702F8F2D9E2D0E94C43487FD0BC09301C6
:10376000A401B501C6010E94C43487FD11C05301F4
:1037700064010EC0212F302F4F2D5E2DB501C601E3
:103780000E94C43487FD04C0A12EB02ECF2CDE2CA5
:10379000C501D601F101858B968BA78BB08F8CE08C
:1037A000FE013196ACE0B1E001900D928A95E1F70F
:1037B000812F902FAF2DBE2D80931801909319016A
:1037C000A0931A01B0931B018CE0FE013D96A0E08E
:1037D000B1E001900D928A95E1F780911D018093EF
:1037E0001E018F5F823109F480E080931D01AD9648
:1037F0000FB6F894DEBF0FBECDBFDF91CF911F9102
:103800000F91FF90EF90DF90CF90BF90AF909F907F
:103810008F907F906F905F904F903F902F900C947F
:10382000BF17AD960FB6F894DEBF0FBECDBFDF91C8
:10383000CF911F910F91FF90EF90DF90CF90BF90AD
:10384000AF909F908F907F906F905F904F903F9040
:103850002F9008958091A5059091A605A091A705A8
:10386000B091A8058093000190930101A0930201FB
:10387000B09303018091A9059091AA05A091AB0591
:10388000B091AC058093040190930501A0930601CB
:10389000B09307018091AD059091AE05A091AF0561
:1038A000B091B0058093080190930901A0930A019B
:1038B000B0930B01089580911E0190911F0189170B
:1038C00008F48E5E891B08950E94662B80911F016B
:1038D00080931C010C94BF17CF93DF93EC01899167
:1038E000882319F00E945B24FACFDF91CF910895CD
:1038F000CF93DF93FC018491EF012196882321F07F
:103900000E945B24FE01F7CFDF91CF910895EF92E3
:10391000FF920F931F93CF93DF931F92CDB7DEB724
:10392000262FEDB6FEB66DB77EB7641B71090FB6D4
:10393000F8947EBF0FBE6DBF0DB71EB70F5F1F4F50
:10394000302FF8019E2F931B941728F4622F0E94AA
:10395000EF379193F7CF442361F0F801E40FF11DA5
:1039600031978081805D49830E945B244981415069
:10397000F2CF0FB6F894FEBE0FBEEDBE0F90DF91F2
:10398000CF911F910F91FF90EF90089548E062E072
:103990000C94871C8A3020F0843620F442E003C067
:1039A00041E001C043E06AE00C94871C8F929F9233
:1039B000AF92BF92CF92DF92EF92FF920F931F933D
:1039C000CF93DF93CDB7DEB72A970FB6F894DEBF5B
:1039D0000FBECDBF6B017C01142F20E030E0A901A8
:1039E0000E94C43487FF07C08DE20E945B24F7FA6F
:1039F000F094F7F8F094012F023060F020E030E00E
:103A000048EC52E4C701B6010E9402376B017C0109
:103A10000250F2CF10FF0AC020E030E040E251E453
:103A2000C701B6010E9402376B017C0120E030E043
:103A300040E05FE3C701B6010E94EB330E943335DB
:103A4000E1E0F0E0EC0FFD1FE10FF11D2EE220831D
:103A5000D12C5AE0852E912CA12CB12C6115710529
:103A600081059105A9F0D11201C0D394EE24E3940D
:103A7000F12CEC0EFD1EED0CF11CA50194010E9431
:103A8000FB37605DF7016083B901CA01D394E6CFCB
:103A900080E3D11648F4E1E0F0E0EC0FFD1FED0DFE
:103AA000F11D8083D394F5CF8D2DD1120BC0D3940B
:103AB000D3948F5FE1E0F0E0EC0FFD1FE80FF11D04
:103AC00080E38083DD2041F0FE01ED0DF11D80815A
:103AD0000E945B24DA94F6CF2A960FB6F894DEBFE4
:103AE0000FBECDBFDF91CF911F910F91FF90EF904F
:103AF000DF90CF90BF90AF909F908F9008952091CE
:103B0000BD0620FF08C02BE832E441E25DE30E94DD
:103B1000023744E001C043E00C94D61C2091BD065E
:103B200020FF08C02BE832E441E25DE30E94023747
:103B300041E001C040E00C94D61C43E00C94D61C3C
:103B40003D98459A08951092BF059091BD0697FD46
:103B500003C090E29093BF05882331F08091BF05A8
:103B600090E289278093BF05089586B18072909175
:103B7000BF0589270895809128058130A1F40E940E
:103B8000B51D882381F0109228058CE0E5EAF5E068
:103B9000A1EBB5E001900D928A95E1F780912705A0
:103BA0008064809327050895EF92FF920F931F93EF
:103BB000CF93DF93D1E008E080E2F82E10E190E4AB
:103BC000E92EC0912905CC2389F1D093A305C1FF2B
:103BD00002C081E00FC0C2FF02C082E00BC0C3FF81
:103BE00002C083E007C0C4FF02C084E003C0C5FF79
:103BF00003C085E00E94E01FC0FD08C08FB7F894A5
:103C000090912905109229058FBF10C081E00E9474
:103C10000A209FB7F894809127058F7E809327050F
:103C20009FBF8091270584FFFCCFE8CFC091270577
:103C3000CC2309F4BCC0C4FF04C081E08093A2057A
:103C4000CEC0C0FF0AC00E943D239FB7F894809168
:103C500027058E7F809327059FBF8C2F887609F4D8
:103C60003CC08091A305882349F0982F9C7769F187
:103C7000883021F40E94662BD093A4058091A3057F
:103C8000811103C092E09093A405C6FF09C088305B
:103C900011F4E092A3058091A40588608093A405A7
:103CA000C3FF05C08091A30585FF1093A305C5FF41
:103CB0000CC086E00E940A208091A40581FDC460AA
:103CC00084608093A405F092A3059FB7F894809137
:103CD00027058779809327059FBFC1FF48C08C2F98
:103CE0008876E9F58091A305882331F08075B9F1D4
:103CF0008091A40581FF33C08091A40582FF1CC080
:103D000080913305882371F0409134055091350539
:103D100060913605709137050E94E82780EA9FE0A0
:103D20000E948E1780913205882331F00E943F0453
:103D300088EE93E00E948E170E94FF18892B59F09D
:103D40008091A40583FD07C00093A3050E94882BE2
:103D50000E94622802C01092A3051092A4059FB78A
:103D6000F894809127058D7F809327059FBFC2FF20
:103D70001EC08091A305807371F08091A40582FF1D
:103D800004C00E94DE270E943A048091A40582604C
:103D90008093A40504C01092A4051092A3059FB7B8
:103DA000F894809127058B7F809327059FBF809192
:103DB000A3058C7711F00E94882B8091A305803297
:103DC00051F48091A40581FF06C00E941D3281112B
:103DD00002C01093A3058091A4058111F2CEDF915A
:103DE000CF911F910F91FF90EF9008959FB7F89496
:103DF000809127058260809327059FBF0895CF9308
:103E0000DF930E9439208091A305813021F482E064
:103E10000E940A202FC00E941D32882341F0809109
:103E200027058062809327050E94D41D02C010924E
:103E3000A30582E094E00E941F321CC08D3079F00F
:103E4000DD2399F1893221F4D13009F04CC0D0E062
:103E50000E94A1248F3F09F448C08A3079F7EC2FE3
:103E6000F0E0EE5FFB4F10820E94D41D8091A2050E
:103E7000882311F0C0E0EBCF80910204811103C0D0
:103E80000E94921FF7CF843229F482E094E00E94CE
:103E90003E32F6CF8091A305813011F489E0F0CF56
:103EA00082E094E00E942005EBCF813288F28F32CD
:103EB00079F28832B1F08B33B1F0CF3428F08BE057
:103EC0000E94921FC0E0C4CF2C2F30E0CF5F9FE94B
:103ED000980FF901EE5FFB4F9A3108F4805280830E
:103EE000B7CFD1E0B5CFD2E0B3CF0E94F61E0E948B
:103EF000D41D8091A205882309F4AACFDF91CF9128
:103F000008950E94F61E0E94D41D8091A205811181
:103F100008C00E94FF18892BB1F78091A305883053
:103F200091F30895CF93C82F811103C086E498E0E0
:103F300044C08EE398E00E94781C4C2F50E0FA01B8
:103F40003197E631F10580F5E75AFF4F0C941D38A3
:103F500086E298E002C084E198E00E94781C2BC0C1
:103F600082E098E0FACF88EF97E0F7CF87EE97E00E
:103F7000F4CF88ED97E0F1CF87EB97E0EECF8EEAB4
:103F800097E0EBCF83EA97E0E8CF80E997E0E5CFD1
:103F900082E897E0E2CF8CE697E0DFCF88E597E014
:103FA000DCCF84E497E0D9CF82E397E00E94781CCD
:103FB0008C2F0E94CA1C8FE297E0CF910C94781C42
:103FC000CF93C82F87E297E00E94781CC33091F00E
:103FD0003CF4C13061F0C230A1F481E197E00FC040
:103FE000C43059F0C53069F487EE96E008C08CE122
:103FF00097E005C08EEF96E002C083EF96E00E9446
:10400000781C84EE96E00E94781C84EF91E0CF91BA
:104010000C948E17CF93C82F82EE96E00E94781CE6
:104020008C2F90E0FC013197E830F105E8F4E1597C
:10403000FF4F0C941D3880ED96E014C08CEB96E099
:1040400011C08AEA96E00EC082EA96E00BC089E9C8
:1040500096E008C08EE896E005C086E896E002C0CB
:1040600083E796E00E94781C8FE696E0CF910C944F
:10407000781C82E596E00C94781C8EE095E00C9418
:10408000781CFF920F931F93CF93DF938AE095E004
:104090000E94781C8091B0060E94CA1C81EF94E0B7
:1040A0000E94781C8091B3060E94CA1C83ED94E0A4
:1040B0000E94781C8091B1060E94CA1C8AEB94E091
:1040C0000E94781C8091B1060E94C61C83EB94E08C
:1040D0000E94781C8091B2060E94CA1C8BE994E071
:1040E0000E94781C8091B2060E94C61C84E994E06C
:1040F0000E94781C8091BD0682FB882780F90E946F
:10410000CA1C83E794E00E94781C8091BD0686FB60
:10411000882780F90E94CA1C83E594E00E94781CDD
:104120008091BD06881F8827881F0E94CA1C83E3D0
:1041300094E00E94781C8091B4060E94CA1C8DE114
:1041400094E00E94781C8091B4060E94C61C85E110
:1041500094E00E94781C6091B5067091B60680913B
:10416000B7069091B8060E949D1D85EF93E00E94CE
:10417000781C6091B9067091BA068091BB06909147
:10418000BC060E949D1D8AED93E00E94781C8091E0
:10419000BD0681700E94CA1C8DEB93E00E94781CC2
:1041A0008091BD0685FB882780F90E94CA1C82EA9F
:1041B00093E00E94781C8091BD0683FB882780F9DC
:1041C0000E94CA1C87E893E00E94781C8091BD067B
:1041D000829581700E94CA1C8BE693E00E94781C35
:1041E0008091BE060E94CA1C81E593E00E94781C63
:1041F0008091BE060E94C61C89E493E00E94781C50
:104200006091BF067091C0068091C1069091C20670
:104210000E949D1D8CE293E00E94781C6091C30671
:104220007091C4068091C5069091C6060E949D1D9E
:104230008FE093E00E94781C8091C7060E94CA1C00
:1042400080EF92E00E94781C6091C9067091CA06C6
:104250008091CB069091CC060E949D1D87ED92E047
:104260000E94781C84E6F82E10E0C0E8D6E000E05A
:1042700085ED92E00E94781C802F8F0D0E94CA1C51
:1042800083ED92E00E94781C123071F01330B9F087
:10429000113029F0688179818A819B8117C06C85F2
:1042A0007D858E859F8512C020E030E041E655E493
:1042B000688D798D8A8D9B8D0E94CB3407C08CA12F
:1042C0009DA1AEA1BFA1BC01CD0190580E949D1D32
:1042D00080ED92E00E94781C013029F0023031F02C
:1042E0008EEC92E005C08CEC92E002C08AEC92E089
:1042F0000E94781C123051F0133059F0113019F02F
:1043000080EC92E008C08EEA92E005C08DE992E070
:1043100002C08DE892E00E94781C89E892E00E9439
:10432000781C0F5F2496033009F0A2CF8AE0F80EC4
:104330001F5F8CE8F81299CFDF91CF911F910F91F9
:10434000FF900895CF9383E892E00E94781CC0E02C
:104350006C2F81EB95E00E94B6330E947F1DC23026
:1043600021F081E892E00E94781CCF5FC33081F792
:104370008FE792E00E94781C8091BD050E94CA1CC4
:104380008BE792E0CF910C94781CEF92FF920F9301
:104390001F93CF93DF93CDB7DEB72C970FB6F8946A
:1043A000DEBF0FBECDBFF12CBE016F5F7F4F8F2DE3
:1043B0000E947826811104C087E00E94921F69C084
:1043C00088E792E00E94781C86E0F81631F0E7E07A
:1043D000FE1208C082E792E002C085E792E00E94E8
:1043E000781C04C086E38F0D0E94CA1C80E792E00F
:1043F0000E94781C8E010F5F1F4FE12CF801619124
:104400007191819191918F010E947F1DF2E0EF16D1
:1044100019F08EE692E002C08AE692E00E94781CD3
:10442000E39483E0E812EACFF394E8E0FE12BCCF15
:1044300084E692E00E94781C09E515E0F12CF80171
:1044400061917191819191918F010E947F1DF2E0A4
:10445000FF1619F082E692E002C08EE592E00E941B
:10446000781CF39483E0F812EACF88E592E00E948A
:10447000781C609165057091660580916705909143
:1044800068050E947F1D84E592E00E94781C0E94CE
:10449000A2212C960FB6F894DEBF0FBECDBFDF91E0
:1044A000CF911F910F91FF90EF90089582E592E0D8
:1044B0000E94781C80912A05823091F038F488237C
:1044C00061F08130A9F48CE492E00CC0833069F093
:1044D000883071F482E492E005C08FE492E002C07B
:1044E00089E492E00E94781C0CC086E492E0FACF46
:1044F0008DE392E00E94781C80912A0582500E94F0
:10450000CA1C8AE392E00E94781C809130058A5C84
:104510000E94CA1C80912E05813049F028F082301B
:1045200051F48BE292E005C085E392E002C080E3A3
:1045300092E00E94781C80912C05811103C086E2D4
:1045400092E002C081E292E00E94781C80912D05E9
:10455000811103C08CE192E002C087E192E00E94E9
:10456000781C80912B05813019F482E192E002C021
:104570008DE092E00E94781C80913105813049F0F5
:1045800028F0823051F481E092E005C089E092E0A9
:1045900002C085E092E00E94781C80913305813052
:1045A00031F040F0823051F489EF91E005C08DEF99
:1045B00091E002C085EF91E00E94781C8091320565
:1045C000882329F0823039F48DEE91E002C081EF2A
:1045D00091E00E94781C8AEE91E00E94781C809104
:1045E0003C050E94CA1C87EE91E00E94781C6091F5
:1045F00038057091390580913A0590913B050E94EC
:104600008E1D84EE91E00E94781C609134057091BB
:10461000350580913605909137050E948E1D80EEFC
:1046200091E00C94781C1F93CF93DF93182FEB012C
:104630008DED91E00E94781C812F0E94CA1C8BEDA9
:1046400091E00E94781CCE010E946C1C88ED91E0E4
:10465000DF91CF911F910C94781CCF93DF93EC01E5
:1046600088EC91E00E94781CCE010E946C1C84ECC6
:1046700091E0DF91CF910C94781CBF92CF92DF92A2
:10468000EF92FF920F931F93CF93DF93CDB7DEB7D7
:1046900068970FB6F894DEBF0FBECDBF8CE0E5EA99
:1046A000F5E0DE011D9601900D928A95E1F780916B
:1046B000A3058430E9F040F48130E9F080F08230E5
:1046C00009F58FE991E01CC0803179F018F4883049
:1046D00049F018C0803291F0803421F013C08EEB85
:1046E00091E00EC089EB91E00BC083EB91E008C034
:1046F0008DEA91E005C086EA91E002C089E991E087
:104700000E94781C8091B406837039F0BE01635F0B
:104710007F4FCE0101960E94D0338091B40680FD78
:1047200005C08091B40681FF6DC01FC082E991E091
:104730000E94781C69817A818B819C810E947F1DF7
:1047400080E991E00E94781C6D817E818F8198853F
:104750000E947F1D80E991E00E94781C69857A851E
:104760008B859C850E947F1DDCCF89E891E00E94AB
:10477000781C9DE4E92E95E0F92E8E010F5F1F4F06
:10478000B12C6801F70161917191819191917F0143
:1047900020853185428553850E94EB339B01AC0116
:1047A000F80160817181828193810E94EA33F8016E
:1047B0006083718382839383F2E0BF120FC02091E4
:1047C00065053091660540916705509168050E9426
:1047D000EA33F80160837183828393830C5F1F4FF8
:1047E000F60160817181828193810E947F1DF2E0D8
:1047F000BF1621F087E891E00E94781CB39423E073
:10480000B212BFCF8091B40682FF08C081E891E068
:104810000E94781C0E945B1C0E94CA1C8091B406F6
:1048200083FF08C08CE791E00E94781C0E943C2422
:104830000E94CA1C8091B40684FF0AC086E791E0FA
:104840000E94781C0E94770F43E062E00E94871C60
:1048500082E791E00E94781C68960FB6F894DEBF5C
:104860000FBECDBFDF91CF911F910F91FF90EF90C1
:10487000DF90CF90BF90089590915404809155049B
:10488000891708F48058891B0895E0ECF0E08081D6
:10489000826080831092C50080E18093C400E1ECC7
:1048A000F0E0808180618083808188608083808166
:1048B000806880830895E091530491E09E0F9034C6
:1048C00009F490E020915204921305C0209127052D
:1048D00024FFF8CF0895F0E0E054FA4F80839093DE
:1048E00053048091C10080628093C10008951F929B
:1048F0000F920FB60F9211248F939F93EF93FF9314
:1049000080915204E82FF0E0E054FA4F90819093A8
:10491000C6008F5F803409F480E080935204909148
:104920005304891305C08091C1008F7D8093C1001D
:10493000FF91EF919F918F910F900FBE0F901F905D
:1049400018959091540480915504891761F0E92FCE
:10495000F0E0E050FA4F80819F5F903809F490E0DA
:104960009093540408958FEF08951F920F920FB6FD
:104970000F9211242F933F934F935F936F937F93E5
:104980008F939F93AF93BF93EF93FF938091C60054
:104990008F33A9F050F4883109F1813211F59FB7B6
:1049A000F89480912705886015C0803471F08E37A7
:1049B000C1F49FB7F8948091270582600BC09FB720
:1049C000F89480912705816005C09FB7F894809185
:1049D00027058062809327059FBF14C00E94B116EF
:1049E00011C0E091550491E09E0F903809F490E0D9
:1049F00020915404921731F0F0E0E050FA4F808398
:104A000090935504FF91EF91BF91AF919F918F913A
:104A10007F916F915F914F913F912F910F900FBEBA
:104A20000F901F9018958091550480935404089519
:104A300021E5829FC001112440E550E09D5F0C9468
:104A4000850440E550E0BC018EEA93E00C948504B7
:104A50002DE0829FC00111244CE050E09E5F0C9439
:104A6000850469E080E090E00E9463044DE450E03A
:104A700060E876E081E090E00C948504EF92FF928C
:104A80000F931F93CF93DF93CDB7DEB72C970FB65D
:104A9000F894DEBF0FBECDBF182F80FFC5C08AE0DF
:104AA0008093B00689E18093B3061092B10610920C
:104AB000B20683E08093B4068AE097EDA3E2BCE3FC
:104AC0008093B5069093B606A093B706B093B80648
:104AD0008FE692E1A3E0BBE38093B9069093BA0618
:104AE000A093BB06B093BC061092BE0680E090E097
:104AF000A8ECB1E48093BF069093C006A093C106D2
:104B0000B093C20640E050E06AEF73E44093C306FE
:104B10005093C4066093C5067093C6068AEF90E072
:104B20009093C8068093C70680E090E0A0E8BFE3BA
:104B30008093C9069093CA06A093CB06B093CC0687
:104B40001092BD0680E090E4ACE9B4E48093800666
:104B500090938106A0938206B093830680E090E054
:104B6000AAE7B3E48093840690938506A093860613
:104B7000B09387068093880690938906A0938A064F
:104B8000B0938B0640938C0650938D0660938E06EF
:104B900070938F064093900650939106609392060F
:104BA00070939306409394065093950660939606EF
:104BB0007093970640E050EA6CE077E440939806E3
:104BC0005093990660939A0670939B0640939C06B7
:104BD00050939D0660939E0670939F064093A00697
:104BE0005093A1066093A2067093A30640E050E0A4
:104BF00068E473EC4093A4065093A5066093A60660
:104C00007093A7064093A8065093A9066093AA063E
:104C10007093AB064093AC065093AD066093AE061E
:104C20007093AF060E94312511FF10C0CE0101968E
:104C30007C018CE0F70111928A95E9F700E0B70159
:104C4000802F0E9428250F5F0830C9F712FF0AC085
:104C500060E080E093E00E94630460E081E593E01F
:104C60000E94630413FF05C060E08EEA93E00E9497
:104C700063042C960FB6F894DEBF0FBECDBFDF9154
:104C8000CF911F910F91FF90EF9008951F93CF93B5
:104C9000DF93182FEB0181E5189FB00111247D5F90
:104CA00040E550E0CE010E94C304892B39F41882FC
:104CB000BE01812F0E94182580E001C081E0DF91B4
:104CC000CF911F910895CF93DF93EC0140E550E021
:104CD0006EEA73E00E94C304892B31F41882CE017E
:104CE0000E94212580E001C081E0DF91CF910895ED
:104CF0001F93CF93DF93182FEB018DE0189FB00126
:104D000011247E5F4CE050E0CE010E94C304892B49
:104D100059F48CE0FE0111928A95E9F7BE01812FCA
:104D20000E94282580E001C081E0DF91CF911F9192
:104D3000089580E090E00E945B04893059F44DE4CE
:104D400050E061E070E080E896E00E94C30421E05A
:104D5000892B09F420E0822F0895CF92DF92EF9201
:104D6000FF92CF93DF93C82F6A017B0120E030E0F0
:104D7000A901C701B6010E94C43487FDE6C0C4364C
:104D800008F445C02CE92C0F80E02330B8F530E062
:104D9000823079F0F901EE0FFF1FEE0FFF1F833015
:104DA00011F1813019F0E058F94F23C0E457F94F61
:104DB00020C0E901CC0FDD1FCC0FDD1FC856D94F35
:104DC00020E030E040E752E4C701B6010E9402371C
:104DD00020E030E040E752E40E94023768837983A4
:104DE0008A839B83AEC0EC55F94FF7FAF094F7F83D
:104DF000F094C082D182E282F382A3C08F5F2A3016
:104E000008F4A5C0843009F4A2C02A50BECFC7015F
:104E1000B6010E94D0370E9438358C2F90E08C313B
:104E2000910508F094C0FC01E958FF4F0C941D381F
:104E3000633008F48EC06093B00683C06093B306FD
:104E400080C06093B10602C06093B2060E94DC2A63
:104E500078C08091BD06662311F0846007C08B7F07
:104E600005C08091BD06662321F080648093BD0655
:104E700068C08F7BFBCF8091BD06662311F08068F0
:104E8000F5CF8F77F3CF6093B4065BC0C092B506C1
:104E9000D092B606E092B706F092B80652C0C09221
:104EA000B906D092BA06E092BB06F092BC0649C0A1
:104EB0008091BD06662311F08160D8CF8E7FD6CF5A
:104EC0008091BD06662321F084FF45C08062CECF6D
:104ED0008F7DCCCF8091BD06662311F0886001C024
:104EE000877F8093BD060E94600F2BC08091BD0616
:104EF000662311F08061BACF8F7CB8CF6093BE0675
:104F000020C0C092BF06D092C006E092C106F092C7
:104F1000C20617C0C092C306D092C406E092C5066E
:104F2000F092C6060EC070E07093C8066093C70684
:104F300008C0C092C906D092CA06E092CB06F09291
:104F4000CC060E94312580E007C084E005C083E0E4
:104F500003C086E001C08AE0DF91CF91FF90EF901F
:104F6000DF90CF9008950E949926811108C087E0B4
:104F70000E94921F8FEF0E943E250C9441200895BD
:104F8000882321F0813021F488E0089584E0089599
:104F900080E10895882321F0813021F480E4089590
:104FA00080E2089580E80895882321F0813021F47B
:104FB00084E0089582E0089580E10895E0EBF0E058
:104FC00080818F7780830895239A259A0C94DE2719
:104FD000CF92DF92EF92FF926A017B01811106C0AE
:104FE000FF90EF90DF90CF900C94DE27813011F48A
:104FF0002D9801C02D9A83E88093B0008091B10074
:10500000887F82608093B10020E030E0A901C70171
:10501000B6010E94C43487FD11C020E030E04AE7A9
:1050200054E4C701B6010E94C736181654F4C12CC7
:10503000D12C8AE7E82E84E4F82E03C0C12CD12CB1
:1050400076012CE53FE842E85EE3C701B6010E9425
:10505000023720E030E040E05FE30E94EB330E9443
:10506000A1350E9438356093B300FF90EF90DF9038
:10507000CF900895CF93DF9300D000D01F92CDB78B
:10508000DEB79091A3059230A9F04A835B836C83CD
:105090007D8389830E94811F4A815B816C817D8130
:1050A00089810F900F900F900F900F90DF91CF910B
:1050B0000C94E8270F900F900F900F900F90DF91B6
:1050C000CF9108958091BD0682FF02C0289A01C049
:1050D00028988091A3058C70A1F08091860480931C
:1050E0009A0480918704809399048091B006880F78
:1050F000845081958093980480916F0082608093A2
:105100006F00089580916F008D7F80936F00809174
:105110008100887F81608093810010928504809156
:10512000B3068F3F21F490912905992349F090917E
:10513000A305943029F090E00E948E1781E001C011
:1051400080E09091BD0692FF02C091E089278823FC
:1051500011F0289A0895289808951F920F920FB67B
:105160000F9211242F933F934F935F936F937F93ED
:105170008F939F93AF93BF93CF93DF93EF93FF935F
:10518000809185048111EFC19BB180919A04807E4A
:105190009F71892B8BB98BB1837E90919904892B58
:1051A0008BB98091980486BD82E085BD81E08093B3
:1051B000850478948091AC049091AD04892B09F01A
:1051C000A4C080918A0490918904981709F492C030
:1051D000E0918A0486E0E89FF0011124E255FB4F3C
:1051E000F093AD04E093AC048381948190938900A3
:1051F00080938800808191819093A8048093A70474
:10520000A2818091A9048A1771F1A093A90481E178
:10521000A89FD0011124AE52BB4FB093AB04A09312
:10522000AA041D968D919D910D90BC91A02DB695CF
:10523000A795979587958093930490939404A09352
:105240009504B093960480938F0490939004A09358
:105250009104B093920480938B0490938C04A09358
:105260008D04B0938E04C091AA04D091AB048091B8
:1052700086049881892780939A04258189819A815F
:10528000AB81BC81022E04C0B695A79597958795F2
:105290000A94D2F780939B0490939C04A0939D045E
:1052A000B0939E048D819E81AF81B885022E04C08B
:1052B000B695A795979587950A94D2F780939F0402
:1052C0009093A004A093A104B093A20489859A8529
:1052D000AB85BC8504C0B695A795979587952A950B
:1052E000D2F78093A3049093A404A093A504B09351
:1052F000A6040BC00E9482289FB7F89480912705CE
:105300008460809327059FBF2EC10E94BB1D109211
:10531000990480919B0490919C04A0919D04B0916C
:105320009E0440918B0450918C0460918D04709187
:105330008E04840F951FA61FB71F80938B04909334
:105340008C04A0938D04B0938E04E091AA04F09194
:10535000AB044585568567857089481759076A07E4
:105360007B0768F524E02093990445855685678579
:105370007089841B950BA60BB70B80938B049093BD
:105380008C04A0938D04B0938E0420818091A50598
:105390009091A605A091A705B091A80525FF04C08E
:1053A0000197A109B10903C00196A11DB11D809308
:1053B000A5059093A605A093A705B093A805809195
:1053C0009F049091A004A091A104B091A2044091E7
:1053D0008F04509190046091910470919204840F15
:1053E000951FA61FB71F80938F0490939004A093DE
:1053F0009104B09392044585568567857089481756
:1054000059076A077B0778F5209199042860209353
:1054100099044585568567857089841B950BA60B75
:10542000B70B80938F0490939004A0939104B09352
:10543000920420818091A9059091AA05A091AB05C5
:10544000B091AC0526FF04C00197A109B10903C0C2
:105450000196A11DB11D8093A9059093AA05A09363
:10546000AB05B093AC058091A3049091A404A091E6
:10547000A504B091A60440919304509194046091C6
:10548000950470919604840F951FA61FB71F8093F3
:10549000930490939404A0939504B0939604458547
:1054A000568567857089481759076A077B0778F51D
:1054B000209199042061209399044585568567853C
:1054C0007089841B950BA60BB70B80939304909364
:1054D0009404A0939504B093960420818091AD0527
:1054E0009091AE05A091AF05B091B00527FF04C023
:1054F0000197A109B10903C00196A11DB11D8093B7
:10550000AD059093AE05A093AF05B093B005809123
:10551000A305843039F48091BE05909199048923C4
:10552000809399048091A7049091A8040197909387
:10553000A8048093A704892B69F41092AD041092FB
:10554000AC0480918A048F5F80938A04863011F4C2
:1055500010928A04809187049091990489278093FE
:10556000990410928504FF91EF91DF91CF91BF9143
:10557000AF919F918F917F916F915F914F913F91EB
:105580002F910F900FBE0F901F9018951F920F92A2
:105590000FB60F9211248F939F939BB18091870434
:1055A0008C71937E892B8BB915BC9F918F910F9035
:1055B0000FBE0F901F901895FF920F931F93CF93DC
:1055C000DF931092870410928604C0E0D0E00C2F85
:1055D0001C2F2091B10630E08C2F0C2E02C0359587
:1055E00027950A94E2F720FF07C0F09087040E94F5
:1055F000C0278F29809387042091B20630E002C033
:10560000359527951A95E2F720FF08C0109186047A
:10561000802F0E94CA27812B809386042196C33055
:10562000D105A9F6DF91CF911F910F91FF900895B9
:105630000E9482288BE2E6E5F4E0DF011D928A9564
:10564000E9F783E2EBE8F4E0DF011D928A95E9F7E0
:10565000109284041092830410928A041092890498
:1056600081E080938804109285040E94DC2A8BB12B
:10567000837E90918704892B8BB98BB18F71909128
:105680008604892B8BB908958AB18C618AB9209AD6
:105690008AB1806E8AB9E1E8F0E080818F7E8083F4
:1056A000808188608083E0E8F0E080818C7F808367
:1056B00080818F708083EEE6F0E08081887F808338
:1056C00014BC15BC8081816080830895CF93DF93E3
:1056D000C0918304D09184042097B9F081E0809335
:1056E000570460916D0470916E0480916F049091E5
:1056F00070049B01AC010E940237698B7A8B8B8B03
:105700009C8B1092840410928304DF91CF910895B2
:105710002F923F924F925F926F927F928F929F92C1
:10572000AF92BF92CF92DF92EF92FF920F931F93AF
:10573000CF93DF93CDB7DEB7E5970FB6F894DEBF12
:105740000FBECDBF8091A305807709F40AC220E087
:1057500030E0A90160916D0470916E0480916F0436
:10576000909170040E94C4348111FBC103C68091E2
:10577000830490918404892B09F4FAC180918904EF
:10578000F6E0F89FF0011124E255FB4FFE83ED8314
:1057900080915604828320918304309184043E8753
:1057A0002D87D9019596BC91BCA7F901F6A1FDA75B
:1057B000D9019796BC91BEA7F901F0A5FFA720914A
:1057C00060043091610440916204509163046CA5BF
:1057D0007DA58B2F9F2F0E94EA3368A779A78AA700
:1057E0009BA720E030E0A9010E94C43487FF04C0D9
:1057F00018A619A61AA61BA620917904288F309105
:105800007A04398F40917B044A8F50917C045B8FDE
:10581000809171048C8F909172049D8FA09173047C
:10582000AE8FB0917404BF8FE0917D04E8A3F09136
:105830007E04F9A320917F042AA3309180043BA326
:10584000409169044CA350916A045DA380916B045C
:105850008EA390916C049FA32091750430917604DF
:10586000409177045091780428AB39AB4AAB5BABDD
:1058700030916D04398340916E04498720906F0404
:1058800030907004509168045F878CA58C8B9DA527
:105890009D8BAEA5AE8BBFA5BF8B3EE3C32E33EC75
:1058A000D32E3EE2E32E39E3F32E188A198A1A8AA0
:1058B0001B8A26013701EF85E111B4C3AD85BE8592
:1058C00091962D913D914D915C919497C701B601B0
:1058D0000E9402374B015C0120E030E040E05FE3D2
:1058E0000E9402379B01AC0169817985C1010E9448
:1058F000EB339B01AC01C701B6010E9402379B014B
:10590000AC016C897D898E899F890E94EA338B0165
:105910008DAB9CAB288D398D4A8D5B8D0E94C43434
:1059200087FF86C3288D398D4A8D5B8D6CA57DA53B
:105930008EA59FA50E94EA339B01AC010E94EB3328
:105940006B017C012C8D3D8D4E8D5F8D698179853C
:10595000C1010E94EB339B01AC01C701B6010E945B
:10596000CB346B017C0128A139A14AA15BA1688DD0
:10597000798D8A8D9B8D0E94C434882309F455C388
:10598000B1E0BF87FC8DF9832D8D29872E8C3F8C4C
:10599000088D198D3A8D3DAB4B8D4CABA70196010F
:1059A000688979898A899B890E94EB33688B798B16
:1059B0008A8B9B8BA30192010E94C43487FDF2C3A2
:1059C00028A539A54AA55BA5B8018DA99CA90E9467
:1059D000C73618160CF4DCC389819985D1018093F0
:1059E0006D0490936E04A0936F04B0937004FF85D0
:1059F000F093680440905C0450905D0460905E04F5
:105A000070905F0498014DA95CA9C301B2010E9486
:105A1000023769837A838B839C830E94B1346B0144
:105A20007C01609158047091590480915A049091BE
:105A30005B040E94B1344B015C01A70196010E94F6
:105A4000EA330E94383569877A878B879C87E98596
:105A5000FA85AD81BE81ED93FC93309709F4CDC3F7
:105A6000209164043091650440916604509167046C
:105A7000688979898A899B890E94EB332B013C01D3
:105A800029813A814B815C81C501B4010E94EA33CE
:105A90009B01AC01C301B2010E94CB344B015C01FC
:105AA00029813A814B815C81C701B6010E94EA33AA
:105AB000A50194010E940237609364047093650409
:105AC000809366049093670420EC31EE44E65EE434
:105AD000C501B4010E9402370E94B1340E943835DA
